:020000040800F2
:10000000D00B002029020008D1410008A9380008BF
:10001000CD41000869070008F94D00080000000004
:100020000000000000000000000000003D42000849
:100030009708000800000000D34100083F42000874
:10004000430200084302000843020008430200087C
:10005000430200084302000843020008430200086C
:10006000430200084302000843020008430200085C
:10007000430200084302000843020008430200084C
:100080004302000843020008F90500084302000883
:1000900043020008430200084302000899080008D0
:1000A000430200084D4300083D4300084302000896
:1000B000430200085D4300084302000843020008B1
:1000C00043020008430200084302000843020008FC
:1000D0004302000843020008E94D000843020008FB
:1000E00043020008D541000843020008430200080B
:1000F00043020008430200084302000843020008CC
:1001000043020008430200084302000843020008BB
:1001100043020008430200084302000843020008AB
:100120006D0700084302000843020008430200086C
:10013000430200084302000843020008430200088B
:10014000430200084302000843020008430200087B
:1001500043020008430200087D070008430200082C
:10016000430200084302000843020008430200085B
:100170004302000843020008430200080000000098
:10018000430200084302000800F002F800F03CF8C7
:100190000AA090E8000C82448344AAF10107DA45E2
:1001A00001D100F031F8AFF2090EBAE80F0013F0F8
:1001B000010F18BFFB1A43F001031847C451000098
:1001C000E4510000103A24BF78C878C1FAD8520729
:1001D00024BF30C830C144BF04680C6070470000C1
:1001E0000023002400250026103A28BF78C1FBD840
:1001F000520728BF30C148BF0B6070471FB505F0DC
:1002000085F81FBD10B510BD00F03EF91146FFF78F
:10021000F5FF04F0C2FF00F05CF903B4FFF7F2FF52
:1002200003BC00F01FF90000094880470948004757
:10023000FEE7FEE7FEE7FEE7FEE7FEE7FEE7FEE796
:10024000FEE7FEE704480549054A064B70470000F3
:100250002143000889010008D0050020D00B0020B0
:10026000D0070020D007002053EA020C00F069807C
:100270002DE9F04B4FF00006002B1FBFB3FA83F5BA
:1002800003FA05F424FA05F65E4012BF1643B2FAEB
:1002900082F502FA05F4C5F120051EBF22FA05FC1D
:1002A00044EA0C04203556EA044C4FEA144418BFC3
:1002B000641C4FF000084FF00009904271EB030CF2
:1002C00039D3002919BFB1FA81F701FA07F6B0FA5C
:1002D00080F700FA07F6C7F120071EBF20FA07FCD7
:1002E00046EA0C062037B6FBF4FCA7EB0507103FE7
:1002F00007F01F0BCBF120060CFA0BFB2CFA06F6CD
:1003000044BFB3460026202FA4BF5E464FF0000B2B
:100310005BEA060C08BF4FF0010B19EB0B09ABFBB6
:10032000027C48EB0608C01B06FB02CC0BFB03CC8F
:1003300071EB0C01C1E70B46024641464846BDE859
:10034000F08B13B54FF000004FF00001AFF30080C9
:10035000BDE81C40704700000EB5054614460E4629
:1003600013A000F06EF8284600F06BF816A000F01D
:1003700068F8304600F065F815A000F062F800213A
:100380008DF80B100A210DF10A008DF80A1008E013
:1003900094FBF1F201FB124294FBF1F4303200F8CD
:1003A000012D002CF4DC00F04CF800F03FF80000C8
:1003B0002A2A2A20617373657274696F6E206661E0
:1003C000696C65643A2000002C2066696C65200029
:1003D0002C206C696E6520004FF0000200B51346BA
:1003E00094469646203922BFA0E80C50A0E80C5055
:1003F000B1F12001BFF4F7AF090728BFA0E80C5006
:1004000048BF0CC05DF804EB890028BF40F8042BFE
:1004100008BF704748BF20F8022B11F0804F18BF6B
:1004200000F8012B704770477047704710B50020E7
:1004300000F022F8FFF7E6FEBDE81040012000F0D2
:1004400011B810B5044602E0641C00F004F82078EE
:100450000028F9D110BD08B569468DF800000320C9
:10046000ABBE08BD01491820ABBEFEE72600020066
:10047000004870476C05002010B500F039F8BDE861
:10048000104000F02FB870477546FFF7F1FFAE46F9
:1004900005006946534620F00700854618B020B590
:1004A000FFF7D0FEBDE820404FF000064FF00007F8
:1004B0004FF000084FF0000B21F00701AC46ACE80C
:1004C000C009ACE8C009ACE8C009ACE8C0098D4679
:1004D000704710B50446AFF300802046BDE81040D9
:1004E000FFF79BBE002801D0FFF7BCBF704700009C
:1004F00010B5002102A000F013F8012010BD00008B
:10050000534947414252543A2041626E6F726D61C5
:100510006C207465726D696E6174696F6E000000A5
:1005200070B505460C460A2000E06D1CFFF793FFEE
:1005300035B128780028F8D102E0641CFFF78BFF62
:1005400014B120780028F8D1BDE870400A20FFF7E8
:1005500082BF70B50546AC6B206C00F0500050BBFC
:10056000206C40F4007020642068806800F04050E7
:10057000E8B9207ED8B92068C06A00F4700020B1C4
:100580002068806800F4806088B92068406820F0A6
:10059000200021684860206C20F480702064206C6A
:1005A00000F4805018B9206C40F00100206420460F
:1005B00000F040FA0BE0206C00F0100018B120466B
:1005C00000F03AFA03E0A06BC16C2846884770BD82
:1005D00070B50546AC6B40202064606C40F00400B0
:1005E0006064204600F028FA70BD70B50446A56B23
:1005F000284600F020FA70BD10B5024800F01DFA40
:1006000010BD00002400002055494A6822F4403201
:100610004A604A6843681A434A600268526822F492
:10062000807203685A6002685368026943EA0222D2
:1006300003685A600268526822F0407203685A6088
:100640000268526883681A4303685A6002689268B5
:1006500022F4006203689A6002689268C3681A43D1
:1006600003689A603F4B826A9A4218D00268926887
:1006700022F0706203689A6002689268836A1A4383
:1006800003689A600268926822F0405203689A6098
:1006900002689268C36A1A4303689A600BE00268B2
:1006A000926822F0706203689A600268926822F091
:1006B000405203689A600268926822F0020203685E
:1006C0009A6002689368027E43EA420203689A6075
:1006D0002022125CA2B10268526842F400620368F0
:1006E0005A600268526822F4604203685A600268E5
:1006F0005368426A521E43EA423203685A6005E078
:100700000268526822F4006203685A600268D26A82
:1007100022F470020368DA620268D36A828B521E86
:1007200043EA02520368DA620268926822F40072B5
:1007300003689A600268936890F8302043EA422286
:1007400003689A600268926822F4806203689A6083
:1007500002689368426943EA822203689A6070479C
:10076000002301400100000F00BFFEE710B5024862
:1007700000F018FC10BD00006C00002010B502480D
:1007800000F010FC10BD0000440300200146087872
:1007900010381823B0FBF3F20848805CC865032AC0
:1007A00005D908686FF30900001D886503E0086833
:1007B0006FF309008865886D7047000016530008C4
:1007C000014600208A6A8B69CBB932B1012A0DD06B
:1007D000022A03D0032A10D10EE000BFCB6A03F037
:1007E0008073B3F1807F00D1012007E0CB6AB3F1C1
:1007F000C07F00D1012001E000E000BF34E08B6940
:10080000B3F5005F1AD132B1012A07D0022A03D012
:10081000032A11D10AE000BF01200EE0CB6A03F0E9
:100820008073B3F1807F00D1012006E0CB6AB3F181
:10083000C07F00D1012000E000BF15E032B1012AE5
:1008400005D0022A04D0032A0CD103E000BF00BF68
:10085000012008E0CB6A03F08073B3F1807F00D100
:10086000012000E000BF00BF704730B50468246875
:1008700024F4802405682C60046863608468402C3C
:1008800004D10468A2600468E16003E00468A16028
:100890000468E26030BD704710B5802000F062FD52
:1008A00010BD70477047000038B502460020009028
:1008B00000BF92F83C00012801D1022038BD012080
:1008C00082F83C0000BF0868092816D91068C06883
:1008D0000C780A3C04EB44050724AC40A0431468A0
:1008E000E0600C780A3C04EB44048868A04014687B
:1008F000E46820431468E06013E0106800690C7835
:1009000004EB44050724AC40A043146820610C7834
:1009100004EB44048868A0401468246920431468E8
:1009200020614868072817D21068406B0C79641E54
:1009300004EB84051F24AC40A0431468606308885E
:1009400080B20C79641E04EB8404A0401468646BCC
:1009500020431468606331E048680D2817D210689E
:10096000006B0C79E41F04EB84051F24AC40A0430A
:1009700014682063088880B20C79E41F04EB8404B7
:10098000A0401468246B20431468206316E01068AC
:10099000C06A0C790D3C04EB84051F24AC40A043D5
:1009A0001468E062088880B20C790D3C04EB840482
:1009B000A0401468E46A20431468E062194B1A4CA2
:1009C0001068A04206D10868122803D1586840F484
:1009D00080005860144C1068A0421CD10868102890
:1009E00002D00868112816D1586840F400005860F9
:1009F000086810280FD10D4800680D4CB0FBF4F0CA
:100A000000EB80004000009002E00098401E009043
:100A100000980028F9D100BF002082F83C0000BFF8
:100A200000BF4BE700230140002001400C000020E4
:100A300040420F0070477047704770B5044600256C
:100A4000002620680068C0F3400520684068C0F3B5
:100A5000401695B38EB3206C00F0100018B9206CCE
:100A600040F4007020642068806800F04050E8B9CD
:100A7000207ED8B92068C06A00F4700020B12068D8
:100A8000806800F4806088B92068406820F0200009
:100A900021684860206C20F480702064206C00F491
:100AA000805018B9206C40F0010020642046FFF708
:100AB000C1FF6FF012002168086020680068C0F371
:100AC000800520684068C0F3C016E5B3DEB3206C33
:100AD00000F0100018B9206C40F400502064206829
:100AE000806800F4401038BB2068806B00F4401030
:100AF00020B12068806800F48060E8B92068406810
:100B000000F48060C0B92068806800F0405098B957
:100B1000207E88B92068406820F080002168486005
:100B2000206C20F480502064206C00F4807018B990
:100B3000206C40F0010020642046FFF7B3FE6FF008
:100B40000C00216808602068006800F0010520683A
:100B50004068C0F3801685B17EB12068006800F05F
:100B6000010050B1206C40F480302064204600F039
:100B700053F86FF001002168086020680068C0F336
:100B8000401520684068C0F380667DB176B1606C26
:100B900040F0020060646FF0200021680860204689
:100BA000FFF74AFF6FF020002168086070BD000069
:100BB00070B5044600250CB9012070BD1549A06A26
:100BC000884200D000BF206C30B9204600F026F8E3
:100BD0000020606484F83C00206C00F0100088B9AC
:100BE000206C20F4885040F0020020642046FFF77B
:100BF0000BFD00206064206C20F0020040F001003A
:100C0000206400E0012500BF002084F83C0000BF04
:100C10002846D2E70100000F7047000010B586B0EB
:100C20000446142101A8FFF7D7FB2D49206888420C
:100C300053D100BF002000902A48006840F4807023
:100C4000284908600846006800F48070009000BFE2
:100C500000BF00BF0020009022481438006840F018
:100C600004002049143908600846006800F00400B8
:100C7000009000BF00BF3F200190032002900020A1
:100C8000039001A9184800F07BFB18481849086038
:100C900000204860002116488160C1604FF48061E7
:100CA000016189004161890081618911C161490245
:100CB00001620021416200F095FA08B1FFF7F1FDF1
:100CC00000BF0B48A063846300BF002211461220BE
:100CD00000F012FE122000F0FFFD06B010BD000073
:100CE00000200140443802400008024010640240E5
:100CF0006C000020F8B504460D4616460020009012
:100D000000BF94F83C00012801D10220F8BD012069
:100D100084F83C0000BF2068806800F00100A0B9A2
:100D20002068806840F001002168886049480068B8
:100D30004949B0FBF1F000EB4000009002E0009860
:100D4000401E009000980028F9D12068806800F0CB
:100D5000010000287CD0206C40F20161884340F4FF
:100D6000807020642068406800F4806028B1206CA6
:100D700020F4005040F480502064206C00F4805037
:100D8000B0F5805F04D1606C20F00600606401E083
:100D90000020606400BF002084F83C0000BF2F4F9B
:100DA0002F48A16BC8632F48A16B08642E48A16B24
:100DB000C8646FF02200216808602068406840F035
:100DC0008060216848602068806840F480702168F5
:100DD0008860226802F14C0133462A46A06B00F07D
:100DE00077FA786800F01F0018BB20492068884215
:100DF00013D01F492068884204D1381D006800F0D4
:100E00001F0050B11B492068884221D11348001DA2
:100E1000006800F01F0010281AD22068806800F0D7
:100E2000405028B92068806840F080402168886080
:100E30000EE00E49206888420AD12068806800F0E0
:100E4000405028B92068806840F080402168886060
:100E500000205BE70C00002040420F00002301400F
:100E600053050008EB050008D105000800200140EB
:100E7000002101400022014070B5034600240025F6
:100E800000BF5879012801D1022070BD012058719E
:100E900000BF022018711868046840F6FE70904088
:100EA0008443D1E9000640EA060505FA02F004434E
:100EB0001868046018680668C02090408643186867
:100EC00006600120187100BF0020587100BF00BFEC
:100ED000DBE710B504460CB9012010BD207920B91C
:100EE00000206071204600F009F8022020710020E7
:100EF0002061012020710020EFE7000010B586B0CE
:100F00000446142101A8FFF767FA194920688842AE
:100F10002BD100BF002000901648006840F0005020
:100F2000144908600846006800F00050009000BFB7
:100F300000BF00BF002000900E481038006840F04D
:100F400001000C49103908600846006800F00100F3
:100F5000009000BF00BF30200190032002900020CD
:100F6000039001A9044800F00BFA06B010BD000080
:100F7000007400404038024000000240014691F8F1
:100F80003500022803D080204865012070470520E5
:100F900081F835000868006820F001000A681060D8
:100FA0000020F3E7F8B50446002000908C48006864
:100FB0004FF41651B0FBF1F7A56D2E6894F85C1054
:100FC00008208840304098B12068006800F0040094
:100FD00070B12068006820F004002168086094F86F
:100FE0005C1008208840A860606D40F001006065DA
:100FF00094F85C1001208840304068B12068406956
:1010000000F0800040B194F85C1001208840A86096
:10101000606D40F00200606594F85C100420884028
:10102000304068B12068006800F0020040B194F8D8
:101030005C1004208840A860606D40F0040060658A
:1010400094F85C1010208840304078B32068006825
:1010500000F0080050B394F85C1010208840A8609D
:101060002068006800F4802080B12068006800F4E7
:10107000002028B9206CC8B12046216C884715E0B3
:10108000A06C98B12046A16C88470FE020680068EA
:1010900000F4807028B92068006820F008002168FA
:1010A0000860206C10B12046216C884794F85C10D1
:1010B000202088403040002865D02068006800F07B
:1010C000100000285FD094F85C1020208840A860B1
:1010D00094F83500052828D12068006820F0160013
:1010E000216808602068406920F08000216848611C
:1010F000206C08B9A06C28B12068006820F00800B6
:101100002168086094F85C103F208840A86000BF08
:10111000002084F8340000BF012084F83500206DE1
:1011200010B12046216D8847F8BD2068006800F4A2
:10113000802080B12068006800F4002028B9606C2D
:1011400010B12046616C88471DE0E06BD8B12046A5
:10115000E16B884717E02068006800F4807068B988
:101160002068006820F010002168086000BF00209F
:1011700084F8340000BF012084F83500E06B10B122
:101180002046E16B8847606D38B3606D00F0010068
:10119000F0B1052084F835002068006820F00100D7
:1011A0002168086000BF0098401C0090B84200D938
:1011B00005E02068006800F001000028F3D100BFBE
:1011C00000BF002084F8340000BF012084F83500FF
:1011D000E06C10B12046E16C884700BFA4E7000036
:1011E0000C0000202DE9F0410446002500F0CEF966
:1011F000074614B90120BDE8F081606A00B100BF64
:1012000000BF002084F8340000BF022084F83500BD
:101210002068006820F00100216808600AE000F002
:10122000B5F9C01B052805D920206065032084F886
:101230003500E0E72068006800F001000028EED1EA
:101240002068056821480540D4E901010843E168A8
:1012500008432169084361690843A1690843E169BA
:101260000843216A08430543606A042803D1D4E98E
:101270000B0108430543206805602068456925F097
:101280000705606A0543606A04280DD1A06A05431A
:10129000E06A48B12046FFF793FA28B14020606524
:1012A000012084F83500A6E7206845612046FFF755
:1012B0006DFA064694F85C103F208840B06000202C
:1012C0006065012084F83500002094E73F8010F02D
:1012D0002DE9F04704460D4616461F464FF000081C
:1012E000D4F8589000BF94F83400012802D10220AD
:1012F000BDE8F087012084F8340000BF94F8350081
:10130000012825D1022084F83500002060653B4685
:10131000324629462046FFF7A8FA94F85C103F2091
:101320008840C9F808002068006840F0160021686D
:101330000860206C28B12068006840F0080021682F
:1013400008602068006840F001002168086006E03D
:1013500000BF002084F8340000BF4FF00208404670
:10136000C6E7704710B5044604480068204020B125
:10137000024804602046FFF7F4FF10BD143C014012
:10138000F8B502460B460025002400200021DCE0D1
:10139000012606FA01F51E6806EA0504AC4273D17F
:1013A0005E68012E08D05E68022E05D05E68112EA0
:1013B00002D05E68122E13D190684F000326BE4003
:1013C000B0434F00DE68BE40304390605068012655
:1013D0008E40B0431E79C6F300168E4030435060F5
:1013E000D0684F000326BE40B0434F009E68BE4009
:1013F0003043D0605E68022E02D05E68122E13D198
:10140000CF0802F1200656F827004E07F70E0F26E8
:10141000BE40B0434F07FF0E1E69BE403043CF08A9
:1014200002F1200646F8270010684F000326BE4050
:10143000B0431E7906F003064F00BE4030431060F3
:101440005E6806F08056B6F1805F7DD100BF002651
:101450000096404E366846F480463E4F3E603E461B
:10146000366806F48046009600BF00BF3A4E8F08EB
:1014700056F827008E07370F0F26BE40B043374E71
:10148000B24202D1002624E05EE0354EB24201D1E4
:1014900001261EE0334EB24201D1022619E0324E3F
:1014A000B24201D1032614E0304EB24201D10426EB
:1014B0000FE02F4EB24201D105260AE02D4EB24276
:1014C00001D1062605E02C4EB24201D1072600E0EC
:1014D00008268F073F0FBE4030431F4E8F0846F847
:1014E0002700264E3068A0435E6806F48036B6F5C5
:1014F000803F00D12043214E3060361D3068A0432C
:101500005E6806F40036B6F5003F00D120431B4E5E
:10151000361D3060361D3068A0435E6806F48016C4
:10152000B6F5801F00D12043144E08363060361DBA
:101530003068A0435E6806F40016B6F5001F00D1BF
:1015400020430E4E0C363060491C1029FFF420AFAA
:10155000F8BD000044380240083801400000024055
:101560000004024000080240000C0240001002404B
:101570000014024000180240001C0240003C0140E0
:101580000AB1816101E00B04836170470148006882
:10159000704700000000002070B504460CB901201F
:1015A00070BD94F83D0028B9002084F83C00204626
:1015B00000F0DAF8242084F83D002068006820F06C
:1015C0000100216808602068006840F4004021683C
:1015D00008602068006820F400402168086000F07E
:1015E00075FB05465C496068884206D85B488542C1
:1015F00001D2012007E0002005E05948854201D2D0
:10160000012000E00020012800D1C9E75548B5FBC2
:10161000F0F62068406820F03F00304321684860C1
:101620004D496068884201D8701C07E04FF49670FD
:1016300070434FF47A71B0FBF1F0401C2168096AE5
:1016400021F03F01084321680862434960688842ED
:1016500014D8681E61684900B0FBF1F0401CC0F36B
:101660000B00042801D204203DE0681E6168490097
:10167000B0FBF1F0401CC0F30B0034E0A06838B9B7
:10168000681E616801EB4101B0FBF1F0401C0AE00B
:10169000681E616801EBC10202EB0111B0FBF1F0C1
:1016A000401C40F48040C0F30B0008B901201AE050
:1016B000A06848B9681E616801EB4101B0FBF1F018
:1016C000401CC0F30B000CE0681E616801EBC10216
:1016D00002EB0111B0FBF1F0401CC0F30B0040F431
:1016E000804040F400402168C9694CF6FF72914384
:1016F00008432168C861D4E90701084321680968E3
:1017000021F0C001084321680860D4E903100843B0
:101710002168896848F2FF32914308432168886054
:10172000D4E9050108432168C96821F0FF01084395
:101730002168C8602068006840F0010021680860E6
:1017400000202064202084F83D000020206384F8DD
:101750003E0000BF24E70000A086010080841E0038
:1017600000093D0040420F0010B586B00446142128
:1017700001A8FEF731FE1B49206888422FD100BF27
:10178000002000901848006840F0020016490860E8
:101790000846006800F00200009000BF00BF4FF450
:1017A00040600190122002900120039004900420D8
:1017B000059001A90D48FFF7E3FD00BF0020009050
:1017C00009481030006840F4800007491031086073
:1017D0000846006800F48000009000BF00BF06B01B
:1017E00010BD0000005800403038024000040240A4
:1017F00003480068034909780844014908607047B4
:10180000000000200800002010B50D48006840F4DA
:1018100000700B4908600846006840F4806008606A
:101820000846006840F480700860032000F0A2F8C9
:10183000042000F007F800F02BF8002010BD000095
:10184000003C024070B504460E4800784FF47A71AF
:10185000B1FBF0F00C490968B1FBF0F5284601F046
:10186000A9F808B1012070BD102C07D20022214632
:10187000501E00F041F80548046001E00120F2E745
:101880000020F0E7080000200C00002004000020E9
:1018900008B500BF002000900E48006840F480406A
:1018A0000C4908600846006800F48040009000BFC2
:1018B00000BF00BF00200090081F006840F080506B
:1018C000091F08600846006800F08050009000BFC3
:1018D00000BF08BD4438024001460846002809DB25
:1018E00000F01F0301229A4043099B0003F1E0230B
:1018F000C3F8002100BF70472DE9F05F80460D4618
:101900001646002703F07AFA074639462A46334638
:1019100001F00700C0F1070ABAF1040F02D94FF035
:10192000040A01E0C0F1070AD14600F1040ABAF145
:10193000070F02D24FF0000A01E0A0F1030AD446DB
:101940004FF0010A0AFA09FAAAF1010A0AEA020AA0
:101950000AFA0CFA4FF0010B0BFA0CFBABF1010B7E
:101960000BEA030B4AEA0B042146404603F04EFA09
:10197000BDE8F09F00BF00F00702064B19684FF664
:10198000FF031940044B0B4343EA0221014B19604A
:1019900000BF70470CED00E00000FA05F8B5044602
:1019A00000250026207800F0010020B9207800F002
:1019B000040004282FD100205B498866FFF7E6FD6C
:1019C000054606E0FFF7E2FD401B022801D903208F
:1019D000F8BD56480068C0F3C0600028F2D16068C6
:1019E0008101207A41EA0070504984310860012069
:1019F0004D498866FFF7CAFD054606E0FFF7C6FDBC
:101A0000401B022801D90320E2E748480068C0F3E0
:101A1000C0600028F2D0207800F0020002287DD1BA
:101A200000BF0020009041484030006840F08050E6
:101A30003E49403108600846006800F08050009040
:101A400000BF00BF3A48006840F480703849086021
:101A5000FFF79CFD054606E0FFF798FD401B0228B6
:101A600001D90320B4E73248006800F480700028F0
:101A7000F2D02E487030006800F440764EB3A08952
:101A800000F44070B04224D028487030006820F440
:101A90004076012027490860002008602348703004
:101AA0000660006800F0010098B1FFF76FFD054681
:101AB00008E0FFF76BFD401B41F28831884201D9F5
:101AC000032085E7194870300068C0F34000002803
:101AD000EFD000BFA08900F44070B0F5407F0CD17A
:101AE00012480830006820F4F810134AE1681140E9
:101AF00008430E490831086007E00C4808300068C8
:101B000020F4F8100949083108600848703000686E
:101B1000A189C1F30B010843044900E002E07031E0
:101B2000086000BF002053E7000047420038024031
:101B300000700040400E4742FFFCFF0F70B50446A6
:101B40000D460CB9012070BD5848006800F00F0028
:101B5000A84209D255490D700846006800F00F00F0
:101B6000A84201D00120EEE7207800F00200022810
:101B70001DD1207800F00400042805D14C480068ED
:101B800040F4E0504A490860207800F00800082836
:101B900005D14748006840F4604045490860444822
:101BA000006820F0F000A1680843414908602078EF
:101BB00000F00100A8B36068012807D13C4808384C
:101BC0000068C0F34040B8B90120BCE76068022853
:101BD00002D06068032807D1354808380068C0F390
:101BE000406048B90120AEE7314808380068C0F3CA
:101BF000400008B90120A6E72D48006820F0030046
:101C0000616808432A490860FFF7C0FC064609E0FE
:101C1000FFF7BCFC801B41F28831884202D90320C7
:101C200091E707E02248006800F00C006168B0EB23
:101C3000810FEDD11D48006800F00F00A84209D9BE
:101C40001A490D700846006800F00F00A84201D044
:101C5000012078E7207800F00400042807D1144818
:101C6000006820F4E050E1680843114908602078DA
:101C700000F00800082808D10D48006820F46040F2
:101C8000216940EAC1000A49086000F03FF80849AC
:101C90000968C1F30311074A515CC840064908604E
:101CA00006480068FFF7CEFD00204CE7003C0240EC
:101CB000083802401E5300080C00002004000020D9
:101CC00001480068704700000C00002000B5FFF7D5
:101CD000F7FF04490968C1F38221034A515CC840F7
:101CE00000BD0000083802402E53000800B5FFF781
:101CF000E7FF04490968C1F34231034A515CC84017
:101D000000BD0000083802402E5300082DE9F047BE
:101D1000002400250026A1462548006800F00C009C
:101D200020B1042805D008283AD105E0DFF88490D6
:101D300039E0DFF8849036E01D48001F006800F0AD
:101D40003F041B48001F006800F4800078B11A4867
:101D50001749091F0968C1F38811A0FB01700146EA
:101D6000224600233846FEF77FFA05460EE011486A
:101D70000F49091F0968C1F38811A0FB01700146D2
:101D8000224600233846FEF76FFA05460848001F32
:101D90000068C0F30140401C4600B5FBF6F902E0C4
:101DA000DFF8109000BF00BF4846BDE8F087000094
:101DB000083802400024F40000127A00F8B5044606
:101DC0000CB90120F8BD207800F00100002874D083
:101DD000F948006800F00C0004280DD0F6480068AF
:101DE00000F00C00082813D1F348001F006800F42D
:101DF0008000B0F5800F0BD1EF4808380068C0F3C1
:101E00004040002859D06068002856D10120D9E709
:101E100000BF6068B0F5803F08D1E7480838006827
:101E200040F48030E449083908601EE06068B0F58D
:101E3000A02F0DD1E0480838006840F48020DE492A
:101E4000083908600846006840F4803008600CE0FB
:101E5000D9480838006820F48030D749083908602C
:101E60000846006820F48020086000BF606890B1D8
:101E7000FFF78CFB054606E0FFF788FB401B642854
:101E800001D903209EE7CC4808380068C0F34040E1
:101E90000028F1D011E0FFF779FB054606E0FFF7D7
:101EA00075FB401B642801D903208BE7C248083822
:101EB0000068C0F340400028F1D1207800F0020013
:101EC00002285FD1BC48006800F00C0058B1BA4845
:101ED000006800F00C0008281CD1B748001F0068FB
:101EE00000F48000B0B9B44808380068C0F340007E
:101EF00020B1E068012801D0012063E7AE4808382E
:101F0000006820F0F800216940EAC100AA490839B8
:101F1000086037E0E06800B30120A8490860FFF7D7
:101F200035FB054606E0FFF731FB401B022801D9CF
:101F3000032047E7A04808380068C0F340000028A5
:101F4000F1D09D480838006820F0F800216940EA87
:101F5000C10099490839086014E0002097490860D9
:101F6000FFF714FB054606E0FFF710FB401B0228B5
:101F700001D9032026E7904808380068C0F34000E4
:101F80000028F1D1207800F0080008282CD16069E1
:101F9000A8B101208A490860FFF7F8FA054606E073
:101FA000FFF7F4FA401B022801D903200AE7824810
:101FB0006C300068C0F340000028F1D014E000202D
:101FC0007F490860FFF7E2FA054606E0FFF7DEFA10
:101FD000401B022801D90320F4E677486C300068E2
:101FE000C0F340000028F1D1207800F0040004285C
:101FF00070D1002770483830006800F0805090B9E8
:1020000000BF002000906C483830006840F08050DD
:102010006949383108600846006800F08050009037
:1020200000BF00BF01276748006800F48070B0B9A6
:102030006448006840F4807062490860FFF7A6FABF
:10204000054606E0FFF7A2FA401B022801D903204B
:10205000B8E65C48006800F480700028F2D000BF49
:10206000A068012808D154486830006840F0010099
:102070005149683108601DE0A06805280DD14E481F
:102080006830006840F004004B4968310860084639
:10209000006840F0010008600CE0474868300068C4
:1020A00020F001004449683108600846006820F0CB
:1020B0000400086000BFA068A8B1FFF767FA0546F2
:1020C00009E0FFF763FA401B41F28831884202D9E8
:1020D000032077E626E0384868300068C0F3400007
:1020E0000028EED013E0FFF751FA054608E0FFF7AD
:1020F0004DFA401B41F28831884201D9032061E644
:102100002D4868300068C0F340000028EFD1012F4F
:1021100007D129483830006820F0805026493831EE
:10212000086000BFA069002845D02348006800F07F
:102130000C0008285DD0A069022845D100201F4965
:102140000866FFF723FA054606E0FFF71FFA401B73
:10215000022801D9032035E6174808380068C0F383
:1021600040600028F1D1D4E907010843616A40EAE0
:1021700081110122A06AC2EB500041EA00412C20EB
:10218000005D41EA00600C49091F086001200B490D
:102190000866FFF7FBF9054606E0FFF7F7F9401B75
:1021A000022801D903200DE6034808380068C0F36F
:1021B00040600028F1D03FE008380240000047426C
:1021C000800E47420070004000201C490866FFF75F
:1021D000DDF9054606E0FFF7D9F9401B022801D9D1
:1021E0000320EFE516480068C0F340600028F2D1F4
:1021F00022E0A069012800D1E4E51148001D06682D
:1022000006F48001E069814214D106F03F01206AA2
:1022100081420FD147F6C0703040616A884209D1CF
:1022200006F44031A06A814204D106F07061E06A90
:10223000814201D00120C5E50020C3E500004742EE
:10224000003802407047704710B504462068806827
:10225000C0F3003078B12068C068C0F3002050B1EE
:102260002046FFF7F0FF2068C06800F0800060F4AF
:10227000C0702168C86020688068C0F3403078B1C1
:102280002068C068C0F3402050B12046FFF7DAFF55
:102290002068C06800F0800060F420702168C86089
:1022A0004FF40030024908600120607710BD000043
:1022B000143C014010B504460CB9012010BD607FEC
:1022C00020B900202077204600F060F802206077D7
:1022D00000BFCA202168486253202168486200BFBD
:1022E000204601F08CFF40B100BFFF20216848620A
:1022F00000BF042060770120E0E720688068224961
:102300000840216888602169606808436169084362
:10231000216889680843216888602168E06808614D
:1023200020680169208941EA00402168086120682D
:10233000C06820F080002168C8602068806800F0D4
:10234000200060B9204600F053FA40B100BFFF20E2
:102350002168486200BF042060770120AEE7206852
:10236000006C20F48020216808642068006CA1695A
:1023700008432168086400BFFF202168486200BF4D
:1023800001206077002099E7BFFF8FFF10B504465A
:102390000749206888420AD10120064908600022C6
:1023A00003212920FFF7A8FA2920FFF795FA10BD8D
:1023B000002800403C0E47422DE9F84103460C46F8
:1023C0001546002600277C48006840094FF47A71C2
:1023D000B0FBF1F04843009000BF187F012802D104
:1023E0000220BDE8F8810120187700BF022058774D
:1023F00055BB1868806800F0400000B102E0002082
:10240000E07000BFE06900B900E000BF207801F093
:10241000E9FE4FEA0048607801F0E4FE48EA00284F
:10242000A07801F0DFFE48EA0008E07848EA0048BA
:1024300094F8200001F0D6FE48EA0060E169084304
:10244000616940EA01061FE01868806800F04000FA
:1024500000B102E00020E07000BFE06900B900E0D8
:1024600000BF20780004617840EA0120A178084389
:10247000E17840EA014094F8201040EA0160E16907
:102480000843616940EA0106A169606840EA010702
:1024900000BFCA201968486253201968486200BF0B
:1024A000606AB0F5807F36D11868806820F480704B
:1024B000196888601868C06800F0800060F4C07017
:1024C0001968C86000BF0098411E009160B900BF44
:1024D000FF201968486200BF0320587700BF002022
:1024E000187700BF03207CE71868C06800F001007F
:1024F0000028E8D01868C6611868476418688068C2
:1025000040F48070196888601868806840F48050D2
:102510001968886035E01868806820F400701968D0
:1025200088601868C06800F0800060F42070196846
:10253000C86000BF0098411E009160B900BFFF2035
:102540001968486200BF0320587700BF0020187741
:1025500000BF032045E71868C068C0F340000028AA
:10256000E8D018680662186887641868806840F4C4
:102570000070196888601868806840F40050196815
:1025800088600E48006840F400300C4908600B4831
:102590000830006840F4003008490831086000BF86
:1025A000FF201968486200BF0120587700BF002053
:1025B000187700BF00BF14E70C000020003C01406A
:1025C0002DE9F04104460D461646002700BF207F46
:1025D000012802D10220BDE8F0810120207700BF50
:1025E000022060774EB9687800F01000102804D1FE
:1025F000687800F0EF000A30687086B9E87801F07A
:10260000F1FD0304687801F0EDFD43EA0023A878AA
:1026100001F0E8FD0343287843EA403709E0E87811
:102620000004697840EA0120A9780843297840EA43
:10263000413700BFCA2021684862532021684862A0
:1026400000BF204601F0DBFD60B100BFFF20216824
:10265000486200BF0420607700BF0020207700BFE1
:102660000120B8E716483840216848602068C068F3
:1026700020F080002168C8602068806800F0200099
:1026800080B9204600F0B4F860B100BFFF20216897
:10269000486200BF0420607700BF0020207700BFA1
:1026A000012098E700BFFF202168486200BF012099
:1026B000607700BF0020207700BF00BF8BE70000DD
:1026C0003FFFFF002DE9F04104460D461646002766
:1026D00000BF207F012802D10220BDE8F081012047
:1026E000207700BF02206077CEB92068806800F0B4
:1026F000400000B102E00020E87000BF287801F03F
:1027000071FD0304687801F06DFD43EA0023A878A9
:1027100001F068FD0343E87843EA004712E02068CF
:10272000806800F0400000B102E00020E87000BFC7
:1027300028780004697840EA0120A9780843E978FC
:1027400040EA014700BFCA2021684862532021683F
:10275000486200BF204601F052FD60B100BFFF207B
:102760002168486200BF0420607700BF0020207706
:1027700000BF0120B1E71D4838402168086020688B
:10278000806820F4802021688860D5E9030108432F
:10279000216889680843216888602068C06820F043
:1027A00080002168C8602068806800F0200080B93F
:1027B000204600F01DF860B100BFFF20216848628C
:1027C00000BF0420607700BF0020207700BF0120F9
:1027D00083E700BFFF202168486200BF01206077C7
:1027E00000BF0020207700BF00BF76E77F7F7F001B
:1027F00070B5044600252068C06820F0A00021685C
:10280000C860FEF7C3FE054607E0FEF7BFFE401BAB
:10281000B0F57A7F01D9032070BD2068C06800F050
:1028200020000028F1D00020F6E710B504460CB9CE
:10283000012010BD606A00B900BF0021A16294F8B8
:10284000510028B9002084F85000204600F034F8E8
:10285000022084F851002068006820F040002168C0
:102860000860D4E901010843E1680843216908438D
:1028700061690843218B01F400710843E169084351
:10288000216A0843A16A0843216808600421A069FD
:1028900001EA1040616A0843216848602068C06905
:1028A00020F400602168C86100206065012084F880
:1028B00051000020BDE7000010B586B00446142189
:1028C00001A8FDF789FD37492068884230D100BF53
:1028D000002000903448006840F48050324908607D
:1028E0000846006800F48050009000BF00BF00BFA1
:1028F000002000902C481438006840F002002A495B
:10290000143908600846006800F00200009000BF1B
:1029100000BF382001900220029000200390022086
:1029200004900520059001A92048FEF729FD36E016
:102930001F492068884232D100BF002000901A4809
:10294000001F006840F480401749091F08600846CE
:10295000006800F48040009000BF00BF00BF00206E
:10296000009011481438006840F002000E491439F4
:1029700008600846006800F00200009000BF00BF39
:102980004FF420400190022002900020039001208B
:1029900004900520059001A90448FEF7F1FC06B05B
:1029A00010BD0000003001404438024000040240E5
:1029B0000038004070B504462546681EB0F1807F9F
:1029C00001D301200FE0681E4FF0E02148610F2184
:1029D0004FF0FF3002F01AFA00204FF0E02188613A
:1029E00007200861002070BD7047704710B503468E
:1029F000002200BF93F83C00012801D1022010BD45
:102A0000012083F83C0000BF22F0FF00CC6840EAC0
:102A1000040222F440708C6840EA040222F48060D0
:102A20004C6840EA040222F400600C6840EA0402A8
:102A300022F480500C6940EA040222F400504C69F0
:102A400040EA040222F48040CC6940EA040218689B
:102A5000426400BF002083F83C0000BF00BFCEE707
:102A600030B502460B4600BF92F83C00012801D168
:102A7000022030BD012082F83C0000BF022082F815
:102A80003D00106844681068816824F0700418687C
:102A9000044310684460184D1068A8421BD01068A9
:102AA000B0F1804F17D0154D1068A84213D0144DC7
:102AB0001068A8420FD0134D1068A8420BD0124DD9
:102AC0001068A84207D0114D1068A84203D0104DDD
:102AD0001068A84205D121F08001586801431068B0
:102AE0008160012082F83D0000BF002082F83C0098
:102AF00000BF00BFBDE7000000000140000400402F
:102B000000080040000C004000040140004001406B
:102B10000018004070B504460D460422294620687E
:102B200001F0A1FC2068406C40F40040216848643A
:102B30002068806800F00706062E05D0206800682F
:102B400040F0010021680860002070BD10B5044607
:102B50000CB9012010BD94F83D0028B9002084F87C
:102B60003C00204600F00CF8022084F83D00211DB6
:102B7000206801F0FBFB012084F83D000020E9E71C
:102B800010B586B00446142101A8FDF725FC6D4957
:102B90002068884220D100BF002000906A48006869
:102BA00040F00100684908600846006800F0010034
:102BB000009000BF00BF002211461920FEF79CFEC6
:102BC0001920FEF789FE002211461A20FEF794FE16
:102BD0001A20FEF781FEB2E02068B0F1804F32D1BA
:102BE00000BF002000905848001F006840F001001E
:102BF0005549091F08600846006800F00100009070
:102C000000BF00BF00BF002000904F48143800688C
:102C100040F001004C49143908600846006800F093
:102C20000100009000BF00BF01200190022002902F
:102C300001200390002004900120059001A9434841
:102C4000FEF79EFB7BE04249206888421AD100BF14
:102C5000002000903C48001F006840F002003A4904
:102C6000091F08600846006800F00200009000BFDD
:102C700000BF002201211D20FEF73EFE1D20FEF7B1
:102C80002BFE5CE033492068884258D100BF002009
:102C900000902D48006840F002002B49086008466B
:102CA000006800F00200009000BF00BF00BF0020DD
:102CB000009025481438006840F004002249143977
:102CC00008600846006800F00400009000BF00BFE4
:102CD00048150190022002900020039003200490E8
:102CE000059001A91C48FEF74BFB1C481C490860D5
:102CF0004FF060604860002119488160C1604FF466
:102D0000806101610021416181614FF48071C16185
:102D10004902016200214162FEF764FA08B1FDF741
:102D2000C0FD00BF0E4921630846846300BF00BF99
:102D3000A163846300BF00BF6163846300BF06B00A
:102D400010BD000000000140443802400000024075
:102D5000000400400004014000080240B864024042
:102D60004403002001460868C06840F001000B6879
:102D7000D8600868806800F00702062A05D0086855
:102D8000006840F001000B681860002070472DE9D2
:102D9000F04104460D4600BF94F83C00012802D1E2
:102DA0000220BDE8F081012084F83C0000BF022031
:102DB00084F83D002068866826F0770626F47F4672
:102DC000206886602868502833D00CDC202850D03A
:102DD00004DC00284BD0102851D149E0302849D0DC
:102DE00040284CD139E060282DD0702807D0B0F5AC
:102DF000805F03D0B0F5005F41D10DE040E0D5E940
:102E000002136A68206801F03FFB2068866846F07C
:102E100077062068866033E0D5E902136A68206887
:102E200001F032FB2068806840F4804021688860AF
:102E300026E0EA686968206801F06BFC5021206890
:102E400001F02DFB1CE0EA686968206801F0BCFC19
:102E50006021206801F023FB12E0EA6869682068BD
:102E600001F057FC4021206801F019FB08E000BF89
:102E700000BF00BF2968206801F011FB00E000BF1F
:102E800000BF012084F83D0000BF002084F83C0012
:102E900000BF00BF85E72DE9F04104460D4614B997
:102EA0000120BDE8F08194F83D0028B9002084F8A5
:102EB0003C00204600F046F8022084F83D002068DF
:102EC000806844F20701884321688860211D2068DA
:102ED00001F04CFA2068D0F80880206886692068E4
:102EE000076A286840EA080840F203308643A96967
:102EF000A86840EA0120064340F60C4086434FF2A2
:102F0000F0008643E969E86840EA01200643286941
:102F10000001296A40EA0130064327F0220727F022
:102F200088076969686840EA011007432068C0F8AB
:102F300008802068866120680762012084F83D00CF
:102F40000020AEE710B586B00446142101A8FDF7B5
:102F500043FA1B492068884230D100BF002000900E
:102F60001848006840F004001649086008460068E8
:102F700000F00400009000BF00BF00BF00200090E0
:102F800010481038006840F008000E4910390860F9
:102F90000846006800F00800009000BF00BF4FF432
:102FA00040500190022002900120039000200490E4
:102FB0000220059001A90448FEF7E2F906B010BD11
:102FC0000008004040380240000C024070472DE9E4
:102FD000F04104460D46164600BF94F83C00012817
:102FE00002D10220BDE8F081012084F83C0000BF3E
:102FF000022084F83D0096B9EB68D5E900122068FC
:1030000001F09AFB2068806920F00C00216888613B
:1030100020688069A9680843216888613DE0042E22
:1030200013D1EB68D5E90012206801F0E1FB2068BC
:10303000806920F440602168886120688069A968FF
:1030400040EA01202168886127E0082E12D1EB6850
:10305000D5E90012206801F0E8FB2068C06920F083
:103060000C002168C8612068C069A968084321680C
:10307000C86112E0EB68D5E90012206801F0F1FBAD
:103080002068C06920F440602168C8612068C06978
:10309000A96840EA01202168C861012084F83D0048
:1030A00000BF002084F83C0000BF00BF9AE710B5C5
:1030B00004460CB9012010BD94F83D0028B9002049
:1030C00084F83C00204600F00CF8022084F83D0013
:1030D000211D206801F04AF9012084F83D000020FC
:1030E000E9E7704710B5044620680069C0F3400066
:1030F000D8B12068C068C0F34000B0B16FF00200E2
:1031000021680861012020772068806900F00300B1
:1031100018B12046FFF75AFF05E0204600F038F9C5
:10312000204600F0F0F90020207720680069C0F305
:103130008000D8B12068C068C0F38000B0B16FF0E3
:10314000040021680861022020772068806900F46B
:10315000407018B12046FFF739FF05E0204600F027
:1031600017F9204600F0CFF9002020772068006989
:10317000C0F3C000D8B12068C068C0F3C000B0B1CF
:103180006FF0080021680861042020772068C0697A
:1031900000F0030018B12046FFF718FF05E02046B5
:1031A00000F0F6F8204600F0AEF900202077206805
:1031B0000069C0F30010D8B12068C068C0F30010E7
:1031C000B0B16FF0100021680861082020772068F6
:1031D000C06900F4407018B12046FFF7F7FE05E023
:1031E000204600F0D5F8204600F08DF90020207729
:1031F0002068006900F0010058B12068C06800F044
:10320000010030B16FF0010021680861204600F034
:10321000A7F920680069C0F3C01058B12068C068E1
:10322000C0F3C01030B16FF0800021680861204603
:10323000FFF7DAFB20680069C0F3801058B12068FE
:10324000C068C0F3801030B16FF0400021680861A1
:10325000204600F0F5F920680069C0F3401058B12D
:103260002068C068C0F3401030B16FF020002168C2
:1032700008612046FFF7B9FB10BD000010B586B00D
:103280000446142101A8FDF7A7F8204920688842C8
:1032900039D100BF002000901D48006840F00100B7
:1032A0001B4908600846006800F00100009000BF5C
:1032B00000BF00BF002000900846006840F00200F8
:1032C00008600846006800F00200009000BF00BFE0
:1032D0004FF4F060019002200290002003900490CF
:1032E0000120059001A90B48FEF74AF80320019040
:1032F000022002900020039004900120059001A973
:103300000548FEF73DF806B010BD00000000014082
:1033100030380240000002400004024070B504460C
:103320000E46154600BF94F83C00012801D102204A
:1033300070BD012084F83C0000BF022084F83D00ED
:1033400035B1042D09D0082D0CD00C2D14D10EE070
:103350003146206801F0ACF80FE03146206801F0FA
:10336000DFF80AE03146206801F018F905E031463F
:10337000206801F04FF900E000BF00BF012084F891
:103380003D0000BF002084F83C0000BF00BFCFE735
:10339000704710B504460CB9012010BD94F83D00EB
:1033A00028B9002084F83C00204600F00CF80220E8
:1033B00084F83D00211D206800F0D8FF012084F82A
:1033C0003D000020E9E7704770B504460D461646FB
:1033D00000BF94F83C00012801D1022070BD0120FB
:1033E00084F83C0000BF022084F83D0036B1042E72
:1033F0001BD0082E31D00C2E5ED145E02946206826
:1034000001F056F82068806940F008002168886162
:103410002068806920F00400216888612068806944
:10342000296908432168886147E02946206801F03E
:1034300077F82068806940F400602168886120681E
:10344000806920F48060216888612068806929692A
:1034500040EA0120216888612FE02946206801F0B8
:103460009DF82068C06940F008002168C8612068A4
:10347000C06920F004002168C8612068C06929691A
:1034800008432168C86118E02946206801F0C2F8A5
:103490002068C06940F400602168C8612068C06984
:1034A00020F480602168C8612068C069296940EA09
:1034B00001202168C86100E000BF00BF012084F83E
:1034C0003D0000BF002084F83C0000BF00BF85E73E
:1034D00010B504460CB9012010BD94F83D0028B980
:1034E000002084F83C00204600F00CF8022084F80C
:1034F0003D00211D206800F039FF012084F83D00C7
:103500000020E9E77047704770B504460E46012277
:103510003146206800F096FF0F492068884203D0AA
:103520000E492068884201D1012000E0002028B126
:103530002068406C40F4004021684864206880683E
:1035400000F00705062D05D02068006840F0010056
:1035500021680860002070BD0000014000040140A7
:1035600010B504461448844225D100BF00BF13485B
:1035700001F0E0FD124801F0DDFD124801F0DAFD36
:1035800000BF00BF0F48D0ED000A9FED0F1A71EE8B
:10359000600AB0EE600A0D4801F083FD0C4801F0AE
:1035A0003AFD00BF00BF40F6340003490968486394
:1035B00000BF00BF00BF10BD040200202405002092
:1035C0000C050020F40400209A99993E98040020EC
:1035D0002404002070B504460D4600BF94F83C005A
:1035E000012801D1022070BD012084F83C0000BFF9
:1035F000022084F83D002946204601F035F848B104
:10360000012084F83D0000BF002084F83C0000BF8A
:103610000120E8E72068C06820F040002168C86009
:103620002068C06820F480402168C860012084F8C8
:103630003D0000BF002084F83C0000BF00BFD2E77F
:10364000704770472DE9F0470446206805682068F8
:10365000C668206847694FF00008C14605F00F08AA
:10366000B8F1000F0AD105F0200038B106F02000B3
:1036700020B1204601F03DF9BDE8F087B8F1000F18
:1036800072D007F0010018B906F4907000286BD0D2
:1036900005F0010030B106F4807018B1E06B40F025
:1036A0000100E06305F0040030B107F0010018B13B
:1036B000E06B40F00200E06305F0020030B107F07B
:1036C000010018B1E06B40F00400E06305F0080071
:1036D00048B106F0200010B907F0010018B1E06B06
:1036E00040F00800E063E06B70B305F0200028B103
:1036F00006F0200010B1204601F0FBF82068406978
:10370000C0F38019E06B00F0080010B9B9F1000FA8
:1037100023D0204601F0CDF82068406900F0400039
:10372000402816D12068406920F040002168486197
:10373000606B50B11748616B0865606BFDF71EFC4C
:1037400010B1606B016D88470CE02046FFF779FFF0
:1037500008E02046FFF775FF04E02046FFF771FF01
:103760000020E06388E7FFE705F0800030B106F055
:10377000800018B1204601F003FB7DE705F0400012
:1037800030B106F0400018B1204601F0A2F873E70E
:1037900000BF71E79F48000810B504460CB901202E
:1037A00010BDA06900B100E000BF94F8390028B94D
:1037B000002084F83800204600F028F8242084F8FF
:1037C00039002068C06820F400502168C860204695
:1037D00001F0E2F82068006920F490402168086157
:1037E0002068406920F02A00216848612068C0688C
:1037F00040F400502168C8600020E063202084F875
:10380000390084F83A000020CAE7000010B586B0FD
:103810000446142101A8FCF7DFFD1F4920688842F7
:1038200037D100BF002000901C48006840F40030F1
:103830001A4908600846006800F40030009000BF94
:1038400000BF00BF0020009014481038006840F00E
:1038500001001249103908600846006800F00100B4
:10386000009000BF00BF0C200190022002900020B9
:103870000390012004900720059001A90848FDF756
:103880007FFD002202212620FEF736F82620FEF7D3
:1038900023F806B010BD000000440040403802404C
:1038A000000002407047704700BFFEE71FB50020D0
:1038B00000900190029003903748384908604FF417
:1038C0008030486000213548816001210161017626
:1038D000002180F820104FF08051C16249108162B0
:1038E0000021C1600621C161012180F83010002152
:1038F0004161FDF75DF908B1FCF7D3FF0A200090A4
:10390000012001900020029069462448FCF7CCFF7A
:1039100008B1FCF7C6FF0B200090022001900120A7
:10392000029069461D48FCF7BFFF08B1FCF7B9FFDC
:103930000C20009003200190022002906946174855
:10394000FCF7B2FF08B1FCF7ACFF0D20009004209B
:1039500001900320029069461048FCF7A5FF08B1CA
:10396000FCF79FFF0E200090052001900290694611
:103970000A48FCF799FF08B1FCF793FF0F2000906D
:1039800006200190029069460448FCF78DFF08B1BB
:10399000FCF787FF1FBD000000200140240000202D
:1039A0001CB50020009001900F481049086008469F
:1039B000FDF78FFA08B1FCF774FF00200090022099
:1039C0000190002269460948FDF756FA08B1FCF754
:1039D00068FF00200190102269460448FDF74CFA68
:1039E00008B1FCF75EFF1CBD00740040CC00002055
:1039F00008B500BF002000900E48006840F4800029
:103A00000C4908600846006800F48000009000BF80
:103A100000BF002211463820FDF76EFF3820FDF769
:103A20005BFF002211464620FDF766FF4620FDF7AA
:103A300053FF08BD3038024000B587B0142102A8FA
:103A4000FCF7CAFC00BF002001907548006840F0F8
:103A50001000734908600846006800F010000190EB
:103A600000BF00BF00BF002001900846006840F082
:103A7000040008600846006800F00400019000BFE0
:103A800000BF00BF002001900846006840F08000A1
:103A900008600846006800F08000019000BF00BF89
:103AA00000BF002001900846006840F00100086057
:103AB0000846006800F00100019000BF00BF00BF91
:103AC000002001900846006840F0020008600846A7
:103AD000006800F00200019000BF00BF00BF00209E
:103AE00001900846006840F0080008600846006839
:103AF00000F00800019000BF00BF00224FF44051C9
:103B00004848FDF73DFD00224FF4E0414648FDF7EF
:103B100037FD00224FF4A0414448FDF731FD01225A
:103B2000D1034348FDF72CFDFF20029000200390B5
:103B30000120049002A93C48FDF722FC4FF40050FC
:103B400002900120039000200490059002A93548BE
:103B5000FDF716FC4FF4E040029001200390002096
:103B60000490059002A93048FDF70AFC4FF4A040EC
:103B700002900120039000200490059002A92B4898
:103B8000FDF7FEFB4FF480400290002003900120DF
:103B9000049002A92748FDF7F3FB4FF40040029080
:103BA00001200390002004900220059002A92048E3
:103BB000FDF7E6FB4FF480600290002003900120A7
:103BC000049002A91748FDF7DBFB4FF480500290E8
:103BD00001200390002004900220059002A91148C2
:103BE000FDF7CEFBFF2002900020039002200490FE
:103BF00002A91048FDF7C4FB802002900E480390F4
:103C00000220049002A90948FDF7BAFB0022012115
:103C10001720FDF771FE1720FDF75EFE07B000BD0F
:103C20003038024000080240001002400004024008
:103C300000000240000C02400000211010B50B48AB
:103C40000B4908600B484860002109488160C16049
:103C50004FF480410161002141618161C1610162D4
:103C6000FDF79AFC08B1FCF71CFE10BD005800409F
:103C7000E0000020400D030000B591B014210CA815
:103C8000FCF7AAFB00200B90282101A8FCF7A4FB5D
:103C90002E482F490860002048607F212C48816011
:103CA000FF21C1600021016141618161FEF702FBDA
:103CB00008B1FCF7F6FD0C208DF830003B208DF8A4
:103CC00031001E208DF8320000200F90109000224D
:103CD0000CA91F48FEF7F6FC08B1FCF7E2FD022034
:103CE0008DF82C0001208DF82D008DF82E0013206A
:103CF0008DF82F0000220BA91548FEF761FC08B1D2
:103D0000FCF7CFFD00208DF804003B208DF8050066
:103D10008DF80600332002900020049005900D4895
:103D200006904FF0706007900020089001208DF8F9
:103D3000240000020A90002201A90548FEF73CFB7E
:103D400008B1FCF7AEFD11B000BD00000028004036
:103D5000340100200000808010B50E480E49086034
:103D60004FF48270486000210B488160C16001619E
:103D700041614FF4007181611821C161002101622C
:103D8000416281620A21C162FEF74FFD08B1FCF772
:103D900088FD10BD003001405401002010B50F48CF
:103DA0000F4908604FF48270486000210C48816020
:103DB000C16002210161012141614902816120212B
:103DC000C16100210162416281620A21C162FEF784
:103DD0002CFD08B1FCF765FD10BD00000038004067
:103DE000AC01002000B595B0002011901290139006
:103DF00014900F9010901C2108A8FCF7EDFA2021D8
:103E00006846FCF7E9FA40484049086000204860ED
:103E100020213E48816041F26701C16000210161BB
:103E20000121416100218161FEF790FE08B1FCF79C
:103E300038FD4FF48050119011A93448FEF7A7FFC8
:103E400008B1FCF72EFD3148FFF742FB08B1FCF743
:103E500028FD2E48FFF79DFA08B1FCF722FD20202F
:103E60000F90002010900FA92848FEF7F9FD08B127
:103E7000FCF717FD6020089041F2680009900020CF
:103E80000A900B900C900D900E90002208A91F48EC
:103E9000FFF79AFA08B1FCF704FD0020089009909A
:103EA000042208A91948FFF739FA08B1FCF7F9FC10
:103EB000082208A91548FFF731FA08B1FCF7F1FC10
:103EC0004FF47A7009900C2208A91048FFF726FADF
:103ED00008B1FCF7E6FC00200090019002909620CB
:103EE0000390002004904FF40050059000200790AC
:103EF00069460648FEF77AFD08B1FCF7D2FC034894
:103F0000FFF7BCF915B000BD00000140040200201D
:103F100000B58FB000200B900C900D900E901421E6
:103F200006A8FCF759FA002002900390049005902F
:103F3000009001904FF080402A490860532048606B
:103F4000002128488160491EC16000210161816112
:103F5000FEF7FCFD08B1FCF7A4FC4FF480500B9079
:103F60000BA92048FEF713FF08B1FCF79AFC1D4887
:103F7000FFF79DF808B1FCF794FC04200690502050
:103F800007900020089009900A9006A91548FFF7AD
:103F900021FB08B1FCF785FC002002900120039072
:103FA000002004900590002202A90E48FFF70FF8A8
:103FB00008B1FCF776FC022002900390042202A9CB
:103FC0000848FFF704F808B1FCF76BFC00200090EC
:103FD000019069460348FEF743FD08B1FCF761FC18
:103FE0000FB000BD4402002000B58BB00020079048
:103FF000089009900A90142102A8FCF7EDF900201E
:10400000009001901A481B49086000204860202158
:104010001848816042F2CF01C160002101618161D5
:10402000FEF794FD08B1FCF73CFC4FF4805007907C
:1040300007A91048FEF7ABFE08B1FCF732FC0620DA
:1040400002900020039002A90A48FFF7C3FA08B1C2
:10405000FCF727FC202000900020019069460548CD
:10406000FEF7FEFC08B1FCF71CFC0BB000BD000025
:10407000000400408402002000B58BB0242102A877
:10408000FCF7AAF900200090019018481849086030
:104090000020486000211648816042F2CF01C160D3
:1040A0000021016181610320029000200390012022
:1040B00004900020059006900790012008900020B1
:1040C00009900A9002A90A48FEF7E5FE08B1FCF73C
:1040D000E8FB00200090019069460548FEF7C0FC0F
:1040E00008B1FCF7DEFB0BB000BD0000000800408B
:1040F000C402002000B58BB0002007900890099002
:104100000A900590069001900290039004901F4839
:104110001F490860A720486000211D4881604FF6B4
:10412000FF71C1600021016141618161FEF70EFDF7
:1041300008B1FCF7B6FB4FF48050079007A914486C
:10414000FEF725FE08B1FCF7ACFB1148FEF7AFFF08
:1041500008B1FCF7A6FB00200590069005A90C48C5
:10416000FEF77EFC08B1FCF79CFB002001900120CB
:1041700002900020039004900C2201A90448FEF74D
:1041800026FF08B1FCF78DFB0BB000BD0004014019
:104190000403002010B50B480B4908604FF496400B
:1041A0004860002108488160C16001610C214161C3
:1041B00000218161C161FFF7EFFA08B1FCF771FBE3
:1041C00010BD000000440040A403002000BFFEE733
:1041D0007047704710B50248FEF736F810BD000072
:1041E000340100200146002203E0521CA1F10A0024
:1041F000C1B20A29F9D2100741EA1060704770B5C0
:10420000044600252068C06800F04000A0B9681E80
:104210002168C860FDF7BAF9054607E0FDF7B6F971
:10422000401BB0F57A7F01D9032070BD2068C068BB
:1042300000F040000028F1D00020F6E7704710B5EC
:10424000FDF7D6FA10BD000000B597B030210BA8DD
:10425000FCF7C2F8142106A8FCF7BEF80020029073
:1042600003900490059000BF01902B48006840F037
:104270008050294908600846006800F0805001908D
:1042800000BF00BF00BF002001902448006840F438
:104290008040224908600846006800F48040019090
:1042A00000BF00BF05200B904FF480300C90012020
:1042B0000D900220119041051291082113914FF4A5
:1042C000A871149102211591042116910BA8FDF7F4
:1042D00075FD08B1FCF7E5FA0F2006900220079063
:1042E000002008904FF4A05009904FF480500A909D
:1042F000052106A8FDF722FC08B1FCF7D2FA02203E
:104300000290C001059002A8FDF748FB08B1FCF738
:10431000C8FA17B000BD00004038024000700040ED
:104320000548006840F47000034908604FF00060E1
:10433000014980390860704788ED00E010B50248F7
:10434000FEF7D0FE10BD00000402002010B50248A8
:10435000FEF7C8FE10BD00000402002010B50248A0
:10436000FEF7C0FE10BD00008402002010B50268F8
:10437000294B98420ED0B0F1804F0BD0274B98427A
:1043800008D0274B984205D0264B984202D0264BA6
:10439000984203D122F070024B681A431E4B984298
:1043A00020D0B0F1804F1DD01C4B98421AD01C4B2E
:1043B000984217D01B4B984214D01B4B984211D0F7
:1043C0001A4B98420ED01A4B98420BD0194B984278
:1043D00008D0194B984205D0184B984202D0184B80
:1043E000984203D122F44072CB681A4322F0800332
:1043F0004C6943EA040202608B68C3620B68836203
:10440000054B984202D0084B984201D10B690363D7
:104410000123436110BD0000000001400004004082
:1044200000080040000C0040000401400040014032
:10443000004401400048014000180040001C0040BA
:104440000020004030B501F01F05012404FA05F3F7
:10445000046A9C430462046A01F01F0502FA05F530
:104460002C43046230BD30B501F01F05042404FA6A
:1044700005F3046A9C430462046A01F01F0502FA12
:1044800005F52C43046230BD30B50C46816821F43B
:104490007F4142EA032525432943816030BD0A4616
:1044A000816821F0700142F0070319438160704771
:1044B00030B5056A25F001050562026A4368846922
:1044C00024F0700424F003040D682C4322F002024F
:1044D0008D682A43104DA84200D103E00F4DA84239
:1044E00006D100BF22F00802CD682A4322F0040260
:1044F000094DA84202D0094DA84207D123F4807388
:1045000023F400734D692B438D692B434360846111
:104510004D684563026230BD000001400004014067
:1045200030B5056A25F010050562026A43688469A2
:1045300024F4E04424F440740D6844EA052422F095
:1045400020028D6842EA0512124DA84200D103E014
:10455000114DA84207D100BF22F08002CD6842EA87
:10456000051222F040020B4DA84202D00A4DA8428B
:1045700009D123F4806323F400634D6943EA850382
:104580008D6943EA8503436084614D6885630262F7
:1045900030BD0000000001400004014030B5056A54
:1045A00025F480750562026A4368C46924F07004CA
:1045B00024F003040D682C4322F400728D6842EA53
:1045C0000522124DA84200D103E0114DA84207D1A7
:1045D00000BF22F40062CD6842EA052222F4806224
:1045E0000A4DA84202D00A4DA84209D123F48053B3
:1045F00023F400534D6943EA05138D6943EA05131B
:104600004360C4614D68C563026230BD0000014073
:104610000004014030B5056A25F480550562036A3F
:104620004468C26922F4E04222F440720D6842EA12
:10463000052223F400538D6843EA0533084DA84250
:1046400002D0084DA84204D124F480444D6944EAC4
:1046500085144460C2614D680564036230BD00008A
:1046600000000140000401402DE9F04105460C46E0
:104670002868866826F070066068064326F00706FC
:104680002068064328688660606800F00F010029F2
:104690003BD10011082838D2DFE800F0333435363A
:1046A0000B272D04D4E90313A2682868FFF7ECFE5A
:1046B0002CE02068052802D10120BDE8F08128689F
:1046C000D0F820802868006A20F00100296808627C
:1046D0002868876927F0F007206947EA00172868EB
:1046E00087612868C0F8208010E02269A1682868E6
:1046F00000F00FF80AE02269A168286800F064F869
:1047000004E000BF00BF00BF00E000BF00BF00200A
:10471000D3E730B50B461446026A056A25F0010559
:104720000562816921F0F00141EA041122F00A02D8
:104730001A438161026230BD70B50C461546066AA7
:1047400026F0010606628169026A184EB04214D052
:10475000B0F1804F11D0164EB0420ED0154EB0427F
:104760000BD0154EB04208D0144EB04205D0144EB6
:10477000B04202D0134EB04201D1012600E0002623
:104780001EB121F00301294301E041F0010121F0B4
:10479000F001F02606EA0316314322F00A0204F083
:1047A0000A0632438161026270BD000000000140D0
:1047B0000004004000080040000C004000040140DC
:1047C000004001400018004030B50B461446056A11
:1047D00025F0100505628169026A21F4704141EA01
:1047E000043122F0A00242EA03128161026230BD6C
:1047F00070B50C461546066A26F0100606628169F9
:10480000026A21F4407141EA052121F470414FF41C
:10481000704606EA0336314322F0A002A02606EADB
:10482000041632438161026270BD70B50C461546B4
:10483000066A26F480760662C169026A21F00301E5
:10484000294321F0F001F02606EA0316314322F451
:1048500020624FF4206606EA04263243C1610262F8
:1048600070BD70B50C461546066A26F48056066281
:10487000C169026A21F4407141EA052121F47041C5
:104880004FF4704606EA0336314322F420424FF4D7
:10489000204606EA04363243C161026270BD70B53B
:1048A0000546AC6B0020E085E0842046FEF7C9FE9B
:1048B00070BD0168C96821F490710268D160016817
:1048C000496921F0010102685161202180F83A1004
:1048D000704710B504462068C06820F04000216889
:1048E000C860202084F839002046FEF7DCFF002055
:1048F00010BD70B5044694F83A0022284AD1A06849
:10490000B0F5805F13D1A56A206940B9206840687E
:10491000C0F308002880A06A801CA06219E020680B
:104920004068C0B22880A06A401CA06211E02069E3
:1049300038B920684068C1B2A26A501CA0621170E8
:1049400007E02068406800F07F01A26A501CA06266
:104950001170E08D401E80B2E085C8B92068C06843
:1049600020F020002168C8602068C06820F48070B2
:104970002168C8602068406920F001002168486112
:10498000202084F83A002046FEF78CFF002070BDFE
:104990000020FCE70220FAE72DE9F84F04462068E2
:1049A000006920F44050E1680843216808612169EA
:1049B000A068084361690843E169084300902068E2
:1049C000C06849F20C618843009908432168C860B7
:1049D0002068406920F44070A1690843216848615B
:1049E000E069B0F5004F75D1E3492068884203D0F3
:1049F000E249206888426FD1FDF778F981460220AC
:104A00006168A0FB01510B461920A9FB00712A46E1
:104A10003846FBF729FC6421B0FBF1F04FEA001A9D
:104A200002206168A0FB01510B461920A9FB00710F
:104A30002A463846FBF718FC074602206168A0FBAF
:104A400001510B461920A9FB00B12A465846FBF735
:104A50000BFC6421B0FBF1F000EBC00101EB001096
:104A6000A7EB8000322101EBC0006421B0FBF1F024
:104A700000F0F8000AEB400A02206168A0FB015137
:104A80000B461920A9FB00712A463846FBF7ECFBC0
:104A9000074602206168A0FB01510B461920A9FBC3
:104AA00000B12A465846FBF7DFFB6421B0FBF1F06A
:104AB00000EBC00101EB0010A7EB8000322101EBFD
:104AC000C0006421B0FBF1F000F007005044216801
:104AD00088604FE16EE0FFE7FDF7F8F881460220BD
:104AE0006168A0FB01510B461920A9FB00712A4601
:104AF0003846FBF7B9FB6421B0FBF1F04FEA001A2E
:104B000002206168A0FB01510B461920A9FB00712E
:104B10002A463846FBF7A8FB074602206168A0FB3F
:104B200001510B461920A9FB00B12A465846FBF754
:104B30009BFB6421B0FBF1F000EBC00101EB001026
:104B4000A7EB8000322101EBC0006421B0FBF1F043
:104B500000F0F8000AEB400A02206168A0FB015156
:104B60000B461920A9FB00712A463846FBF77CFB4F
:104B7000074602206168A0FB015003461920A9FBEB
:104B800000B12A465846FBF76FFB6421B0FBF1F0F9
:104B900000EBC00101EB0010A7EB8000322101EB1C
:104BA000C0006421B0FBF1F000F007005044216820
:104BB0008860DFE070492068884203D06F49206830
:104BC00088426BD1FDF792F8814604206168A0FB12
:104BD00001510B461920A9FB00712A463846FBF704
:104BE00043FB824604206168A0FB01510B4619205B
:104BF000A9FB00712A463846FBF736FB6421B0FB5F
:104C0000F1F000EBC00101EB0010AAEB80003221B3
:104C100001EB00106421B0FBF1F000F0F00A042079
:104C20006168A0FB015003461920A9FB00712A46C8
:104C30003846FBF719FB6421B0FBF1F00AEB001AD0
:104C400004206168A0FB01510B461920A9FB0071EB
:104C50002A463846FBF708FB074604206168A0FB9C
:104C6000015003461920A9FB00B12A465846FBF71C
:104C7000FBFA6421B0FBF1F000EBC00101EB001086
:104C8000A7EB8000322101EB00106421B0FBF1F0B2
:104C900000F00F005044216888606BE0FDF716F8C3
:104CA000814604206168A0FB015003461920A9FB3E
:104CB00000712A463846FBF7D7FA8246042061681D
:104CC000A0FB015003461920A9FB00712A46384673
:104CD000FBF7CAFA6421B0FBF1F000EBC00101EB75
:104CE0000010AAEB8000322101EB00106421B0FB20
:104CF000F1F000F0F00A04206168A0FB01500346C7
:104D00001920A9FB00712A463846FBF7ADFA642149
:104D1000B0FBF1F00AEB001A04206168A0FB0170FF
:104D200003461920A9FB005001463A462846FBF7E6
:104D30009BFA074604206168A0FB01500346192036
:104D4000A9FB00B12A465846FBF78EFA6421B0FB56
:104D5000F1F000EBC00101EB0010A7EB8000322165
:104D600001EB00106421B0FBF1F000F00F005044A3
:104D700021688860BDE8F88F0010014000140140F0
:104D8000014691F8390021282CD18868B0F5805F60
:104D90000FD10A6A1088C0F308000B6858600869D0
:104DA00018B9086A801C086209E0086A401C086299
:104DB00005E00B6A581C086218780B685860C88CAC
:104DC000401E80B2C88458B90868C06820F08000CE
:104DD0000B68D8600868C06840F040000B68D86075
:104DE000002070470220FCE710B50248FEF72AFCBD
:104DF00010BD0000A403002000BFFEE702480068C9
:104E0000C0F30220704700000CED00E010B5002850
:104E100004DB0A07130E054A135406E00A07140EB2
:104E2000034A00F00F031B1FD45410BD00E400E040
:104E300018ED00E001604260836070479FED040A56
:104E400080ED070A9FED020A80ED060A7047000018
:104E50000000000010B5DFED1D1A9FED1D1ADFEDFB
:104E60001D0A9FED1D0A1D4800F086F89FED173AB8
:104E7000DFED172A9FED172AF0EE081A9FED141A9E
:104E8000DFED170AB7EE080A164800F02FF800BF4A
:104E90000120144948660020C866086700BFB6EEC6
:104EA000000A084680ED180A00BF00BF002088668F
:104EB00000BF00BF0C4800680028FBD000BF0120E5
:104EC0000849886600BF00BF00BF10BD00409C4677
:104ED000000000000AD7233C3333333F98040020FE
:104EE0000AD7A33C240400201C00002010B52DED9F
:104EF000088B0446B0EE40AAF0EE60AAB0EE41BACC
:104F0000B0EE618AF0EE428AB0EE629AF0EE439A19
:104F1000F0EE691AB0EE4B1AF0EE6A0AB0EE4A0AE9
:104F200004F1100000F028F8F0EE691AB0EE491A0A
:104F3000F0EE680AB0EE480A04F1300000F01CF808
:104F400000BF04F13000FFF779FF04F11000FFF714
:104F500075FF9FED080A84ED140A9FED060A84EDA3
:104F6000150A00BF0020A06600BF00BFBDEC088B83
:104F700010BD00000000000080ED010A21EEA02A13
:104F8000C0EE022AC0ED022A20EE212A22EE012ADA
:104F900080ED032ABFEE002A80ED042AB7EE002A36
:104FA00080ED052A9FED062A80ED002A9FED042A58
:104FB00080ED072A9FED022A80ED062A7047000047
:104FC0000000000030B51C464160C0ED040A80EDD1
:104FD000050A8260057A0123AB4001EE103AB8EE73
:104FE000C11AF7EE001A81EE812A80ED032A9FEDA7
:104FF000021A80ED001A30BD000000009FED040A87
:1050000080ED000A0023C3604260816070470000A9
:1050100000000000704710B50446606EA0B3206F1A
:1050200090B1D4ED170A206890ED001A70EEC10A15
:10503000B0EE600A04F1300000F033F8D4ED140A49
:1050400030EE200A84ED160AE06E90B1D4ED160A17
:10505000606890ED001A70EEC10AB0EE600A04F1CB
:10506000100000F01EF8D4ED150A30EE200A84ED91
:10507000180AA06E48B194ED180AF7EE000A30EE57
:10508000C00A84ED030A09E004E0B7EE000A84EDEB
:10509000030A03E0B7EE000A84ED030A94ED030A65
:1050A00010BD10B52DED028B0446B0EE408A94ED94
:1050B000010A20EE080A84ED000AD4ED061A94EDE8
:1050C000002AD4ED022A42EE221AB0EE610AD4ED93
:1050D000051AB0EE611AD4ED041AF0EE610A00F080
:1050E00096F884ED060A94ED060AD4ED070A78EEE8
:1050F000600A94ED031A00EE810AD4ED000A30EE46
:10510000200A84ED000AD4ED051AB0EE611AD4ED40
:10511000041AF0EE610AD4ED001AB0EE610A00F054
:1051200076F884ED000A84ED078A94ED000ABDEC60
:10513000028B10BD10B52DED048B0446606800B1E4
:1051400004E051220D490EA0FBF706F9606890EDCE
:10515000008A94ED030AF8EE480A60EE208A94ED86
:10516000040A38EEC09A94ED050A20EE090A84ED8F
:10517000000A94ED000ABDEC048B10BD3853000802
:105180006164635F6F626A2D3E72617700000000A8
:1051900070477047704770477047FCF735FBFFF763
:1051A00053F8FEF749FCFEF723FCFEF765FDFEF71A
:1051B000F5FDFEF77BFBFEF7F3FBFEF73FFDFEF789
:1051C000E9FFFEF70FFEFEF7A3FEFEF755FFFEF721
:1051D000C3FDFEF78FFFFEF707FF00BFFFF7DBFF02
:1051E00000F02AF8FFF7D4FFFFF734FEFFF7D4FFF3
:1051F000FFF7D0FF00BF08E000BFFFF7CAFF00F0D5
:1052000005F8FFF707FF00BF00BFF5E77047F0EEB6
:10521000401AF4EEE01AF1EE10FA02D2B0EE600A93
:105220007047F4EEC11AF1EE10FA02DDB0EE410A59
:10523000F6E7B0EE610AF3E710B518230C22DFEDB4
:10524000270AB0EE040A26492648FFF7BBFE1823BA
:105250000C22DFED250A9FED250A21490839244853
:10526000FFF7B0FE18230C22DFED1F0A9FED1F0A87
:105270001B49091F1F48FFF7A5FE41F267020021E5
:105280001D48FFF7BBFE1A4B164A1A491B48FFF789
:10529000D1FD1B48FDF766FD1A48FDF763FD0021AF
:1052A0001848FEF731F904211648FEF72DF90821B8
:1052B0001448FEF729F900211248FDF72BFC0421C0
:1052C0001048FDF727FC08210E48FDF723FC0622B5
:1052D000034908390C48FBF70DFD10BDEC51B83EF1
:1052E00054050020240500208B1ACC3EAF23C53F77
:1052F0000C050020F40400203C05002024040020BC
:105300008402002004020020240000204FF040709E
:10531000E1EE100A70470006101600061016000095
:105320000000000000000102030406070809000055
:1053300000000102030400002E2E2F2E2E2F2E2EF1
:105340002F2E2E2F2E2E2F2E2E2F2E2E2F676D70BE
:105350005F70726F2F63746C2F636F6D706F6E650B
:105360006E742F696E746572666163652F61646324
:105370005F7074725F6368616E6E656C2E680000AA
:10538000A05300080000002024000000C401000811
:10539000C453000824000020AC0B0000E00100080A
:1053A0000000000010000000010000000024F400D4
:1053B00000000000000000000000000000000000ED
:0453C00000000000E9
:040000050800018965
:00000001FF
